{
  "txid": "08b4283f230ffbb72b001eef01e267b310fa6f9d3800d2000474787e13c98ae7",
  "hash": "24c32d0a7370ca664023a9a1305ae1554731f400723f119e6f11b54332e950c9",
  "version": 2,
  "size": 510,
  "vsize": 348,
  "weight": 1389,
  "locktime": 4782701,
  "vin": [
    {
      "txid": "195ab02317d0e6e1fff7c6ea76e896f8c013fc4b0d4fa6d94196ee7463f97920",
      "vout": 1,
      "scriptSig": {
        "asm": "",
        "hex": ""
      },
      "txinwitness": [
        "30440220248bb782cf19430981bf346dc397316ad28d693a55c3c5de0a1b9f5be958fe1802204a8d8b056c76e0e77db083b50db36e618857692407027f4e299baf5cc433aa4101",
        "034e22a0f8b13e2f5e91355b74bdc8e07b7ec6c5e2c31ff7daabdc167ad2d17539"
      ],
      "sequence": 4294967293
    },
    {
      "txid": "729b102e8b228d2c08095ebda5c0668aed893275117b2b3ea9a940f5d87a6994",
      "vout": 1,
      "scriptSig": {
        "asm": "00146bcf730f3a82c8a047b567ed2fff9beb945090c3",
        "hex": "1600146bcf730f3a82c8a047b567ed2fff9beb945090c3"
      },
      "txinwitness": [
        "304402206c7a8c33e13ae3dd84c0605a8380d98bf7f543f5ab6061678ddd851dda2ca3d302201868479f8b5d9b2045f039dfd9624432c4b40e62273d8920aede6a99bd5622dd01",
        "03e46ebd17af4cb7746dd6e190f85f34a855467346e11f34a2cc864fcf9c7d33c9"
      ],
      "sequence": 4294967293
    },
    {
      "txid": "9ecedbaa6430436ba29525a5c48b1038ef942062739be23ec08a3d089134b058",
      "vout": 1,
      "scriptSig": {
        "asm": "30440220534c7119d920f9589d47ecd2b92d9fb7d23308e4a8f65540fad4e3b73970bb2b02201aeedb63c27844666539e72ec7afa587310027ac5c4f1cc17737195258ebe973[ALL] 038daf92580f95544335297532e782f2493c6b852d2e1382aa8816945d819c08ac",
        "hex": "4730440220534c7119d920f9589d47ecd2b92d9fb7d23308e4a8f65540fad4e3b73970bb2b02201aeedb63c27844666539e72ec7afa587310027ac5c4f1cc17737195258ebe9730121038daf92580f95544335297532e782f2493c6b852d2e1382aa8816945d819c08ac"
      },
      "sequence": 4294967293
    }
  ],
  "vout": [
    {
      "value": 0.00295000,
      "n": 0,
      "scriptPubKey": {
        "asm": "0 912274ef7d2b24f5fea42f23793ff793e213e9f8",
        "desc": "addr(tb1qjy38fmma9vj0tl4y9u3hj0lhj03p860c70ss06)#p9scg8te",
        "hex": "0014912274ef7d2b24f5fea42f23793ff793e213e9f8",
        "address": "tb1qjy38fmma9vj0tl4y9u3hj0lhj03p860c70ss06",
        "type": "witness_v0_keyhash"
      }
    }
  ],
  "hex": "020000000001032079f96374ee9641d9a64f0d4bfc13c0f896e876eac6f7ffe1e6d01723b05a190100000000fdffffff94697ad8f540a9a93e2b7b11753289ed8a66c0a5bd5e09082c8d228b2e109b7201000000171600146bcf730f3a82c8a047b567ed2fff9beb945090c3fdffffff58b03491083d8ac03ee29b73622094ef38108bc4a52595a26b433064aadbce9e010000006a4730440220534c7119d920f9589d47ecd2b92d9fb7d23308e4a8f65540fad4e3b73970bb2b02201aeedb63c27844666539e72ec7afa587310027ac5c4f1cc17737195258ebe9730121038daf92580f95544335297532e782f2493c6b852d2e1382aa8816945d819c08acfdffffff015880040000000000160014912274ef7d2b24f5fea42f23793ff793e213e9f8024730440220248bb782cf19430981bf346dc397316ad28d693a55c3c5de0a1b9f5be958fe1802204a8d8b056c76e0e77db083b50db36e618857692407027f4e299baf5cc433aa410121034e22a0f8b13e2f5e91355b74bdc8e07b7ec6c5e2c31ff7daabdc167ad2d175390247304402206c7a8c33e13ae3dd84c0605a8380d98bf7f543f5ab6061678ddd851dda2ca3d302201868479f8b5d9b2045f039dfd9624432c4b40e62273d8920aede6a99bd5622dd012103e46ebd17af4cb7746dd6e190f85f34a855467346e11f34a2cc864fcf9c7d33c9006dfa4800"
}
