{
  "txid": "e56da664631b8c666c6df38ec80c954c4ac3c4f56f040faf0070e4681e937fc4",
  "hash": "e56da664631b8c666c6df38ec80c954c4ac3c4f56f040faf0070e4681e937fc4",
  "version": 1,
  "size": 222,
  "vsize": 222,
  "weight": 888,
  "locktime": 1325340,
  "vin": [
    {
      "txid": "0a08ea26a49e2b80f253796d605b69e2d0403fac64bdf6f7db82ada4b7bb6b62",
      "vout": 1,
      "scriptSig": {
        "asm": "30440220079e17291fac5112b36101407a06ebf76b2bf4c8c236c5caf8967baede884b45022072b1a2aa7f1a8fb6410d287b1902cd6debff3046c69e56a1355d5b95bf84c8cf[ALL] 0384c5a4a52f64924bf3b6c32c4d744198389d56aa9a8f825a80c4efe23b44990b",
        "hex": "4730440220079e17291fac5112b36101407a06ebf76b2bf4c8c236c5caf8967baede884b45022072b1a2aa7f1a8fb6410d287b1902cd6debff3046c69e56a1355d5b95bf84c8cf01210384c5a4a52f64924bf3b6c32c4d744198389d56aa9a8f825a80c4efe23b44990b"
      },
      "sequence": 4294967293
    }
  ],
  "vout": [
    {
      "value": 0.02500000,
      "n": 0,
      "scriptPubKey": {
        "asm": "0 e5bddbfee3883729b48fe3385216e64e6035f6eb",
        "desc": "addr(tb1quk7ahlhr3qmjndy0uvu9y9hxfesrtahtta9ghm)#8drkr0ws",
        "hex": "0014e5bddbfee3883729b48fe3385216e64e6035f6eb",
        "address": "tb1quk7ahlhr3qmjndy0uvu9y9hxfesrtahtta9ghm",
        "type": "witness_v0_keyhash"
      }
    },
    {
      "value": 0.07495000,
      "n": 1,
      "scriptPubKey": {
        "asm": "OP_DUP OP_HASH160 05a20074ef7eb42c7c6fcd4f499faa6997427832 OP_EQUALVERIFY OP_CHECKSIG",
        "desc": "addr(mg2jk6S5WGDhUPA8mLSxDLWpUoQnX1zzoG)#zgqlerq9",
        "hex": "76a91405a20074ef7eb42c7c6fcd4f499faa699742783288ac",
        "address": "mg2jk6S5WGDhUPA8mLSxDLWpUoQnX1zzoG",
        "type": "pubkeyhash"
      }
    }
  ],
  "hex": "0100000001626bbbb7a4ad82dbf7f6bd64ac3f40d0e2695b606d7953f2802b9ea426ea080a010000006a4730440220079e17291fac5112b36101407a06ebf76b2bf4c8c236c5caf8967baede884b45022072b1a2aa7f1a8fb6410d287b1902cd6debff3046c69e56a1355d5b95bf84c8cf01210384c5a4a52f64924bf3b6c32c4d744198389d56aa9a8f825a80c4efe23b44990bfdffffff02a025260000000000160014e5bddbfee3883729b48fe3385216e64e6035f6eb585d7200000000001976a91405a20074ef7eb42c7c6fcd4f499faa699742783288ac1c391400",
  "blockhash": "000000000000382cd4123e9af4af07c084f011a0fd63d71b4bad06f625c7a1bd",
  "confirmations": 3457359,
  "time": 1528907736,
  "blocktime": 1528907736
}
