{
  "blockhash": "9290230cc04c97193329fd91428feda621043d2d7a85b6cc07d8e3f33b664f03",
  "blocktime": 1630670342,
  "confirmations": 2,
  "hash": "2643399777227af3e56264e9b7e10d392366d55c4b43fbd49ab8d30383aab86d",
  "hex": "0300000001202c08a0d8a1c6dbd6935586cfeb1f61a8db09b21d91863375c1aa0595225c4701000000484730440220327b9a2bc78f1a009a3f6d84f83c0a69f560af1e66ac0b7becaa783859f5c9b70220275cf4fe3f50c4eb1134052d7858e206086ef232e8414d1b97cb58f96cce010901feffffff0158bd8910000000001976a914ef3f4461e03bb661dc168413ca480e9be197e12988accad30600",
  "locktime": 447434,
  "size": 157,
  "time": 1630670342,
  "txid": "2643399777227af3e56264e9b7e10d392366d55c4b43fbd49ab8d30383aab86d",
  "version": 3,
  "vin": [
    {
      "scriptSig": {
        "asm": "30440220327b9a2bc78f1a009a3f6d84f83c0a69f560af1e66ac0b7becaa783859f5c9b70220275cf4fe3f50c4eb1134052d7858e206086ef232e8414d1b97cb58f96cce0109[ALL]",
        "hex": "4730440220327b9a2bc78f1a009a3f6d84f83c0a69f560af1e66ac0b7becaa783859f5c9b70220275cf4fe3f50c4eb1134052d7858e206086ef232e8414d1b97cb58f96cce010901"
      },
      "sequence": 4294967294,
      "txid": "475c229505aac1753386911db209dba8611febcf865593d6dbc6a1d8a0082c20",
      "vout": 1
    }
  ],
  "vout": [
    {
      "n": 0,
      "scriptPubKey": {
        "addresses": [
          "n3Kyan5GXUFp8jvo3t3Fu8Ry8LN4qWeR3c"
        ],
        "asm": "OP_DUP OP_HASH160 ef3f4461e03bb661dc168413ca480e9be197e129 OP_EQUALVERIFY OP_CHECKSIG",
        "hex": "76a914ef3f4461e03bb661dc168413ca480e9be197e12988ac",
        "reqSigs": 1,
        "type": "pubkeyhash"
      },
      "value": 277462360
    }
  ],
  "vsize": 157,
  "weight": 628
}
